:1000000012C042C02BC0C1C0D6C028C027C026C065
:1000100026C039C123C022C021C020C01FC01EC0BD
:100020001DC01CC01BC011241FBECFE5D4E0DEBF25
:10003000CDBF10E0A0E6B0E0E4E3F6E002C005903A
:100040000D92A036B107D9F720E0A0E6B0E001C0DC
:100050001D92A037B207E1F715D2EAC2D1CF1F92A5
:100060000F920FB60F9211248F9380916A008E31F8
:1000700028F480916A008F5F80936A008F910F90BF
:100080000FBE0F901F9018951F920F920FB60F92F0
:100090001124CF92DF92EF92FF922F933F934F93D1
:1000A0005F936F937F938F939F93AF93BF93EF93E0
:1000B000FF9380B3847080BB882319F01DBC1CBCE7
:1000C0004FC02CB53DB5C0906700D09068002C158E
:1000D0003D05E8F1E0916500F0916600E217F30755
:1000E000B0F1EE24D7FCE094FE2C40E050E02C1957
:1000F0003D094E095F09AEEFB1E04DD29F014427A3
:1001000037FD4095542F2C193D094E095F0927D220
:100110002F5F31094109510930936C0020936B0026
:1001200080916A00833018F410926A0005C08091B3
:100130006A00835080936A0080916900833018F4CC
:10014000109269000DC080916900835007C08091B2
:1001500069008E3128F4809169008F5F8093690077
:10016000FF91EF91BF91AF919F918F917F916F918F
:100170005F914F913F912F91FF90EF90DF90CF9043
:100180000F900FBE0F901F9018951F920F920FB6F1
:100190000F9211248F9383B58F3F39F080916F00B8
:1001A000813019F085B315BA949A8F910F900FBED4
:1001B0000F901F9018951F920F920FB60F92112457
:1001C0008F9383B5882351F080916F00811102C015
:1001D000AD9A04C0823011F482B312BA83B58B3F5A
:1001E00068F080916000833330F085B315BA949A3B
:1001F0001092600003C08F5F809360008F910F901A
:100200000FBE0F901F901895F894949AAC9A8FE1B6
:1002100093E00197F1F700C00000959A8FE193E019
:100220000197F1F700C00000AD9A78940895F89412
:1002300085B315BA82B312BA8FE193E00197F1F753
:1002400000C0000085B315BA8FE193E00197F1F784
:1002500000C0000082B312BA78940895F89485B370
:1002600015BA949A8FE193E00197F1F700C000006E
:10027000959A85B315BA8FE39CE90197F1F700C011
:100280000000789408951F920F920FB60F921124D8
:100290002F933F934F935F936F937F938F939F938E
:1002A000AF93BF93EF93FF9380916B0090916C009D
:1002B0008F3F910539F034F08FEF90E090936C0010
:1002C00080936B0080916B0090916C0081309F4F08
:1002D00034F481E09FEF90936C0080936B008091E9
:1002E0006B0090916C0080389F4F54F480916D00AA
:1002F000813031F480E89FEF90936C0080936B0025
:1003000080916B0090916C008138910554F0809140
:100310006D00813031F480E890E090936C00809320
:100320006B0080916A008F3020F4809169008F30DB
:1003300020F010926C0010926B0080916B009091F5
:100340006C0097FF0FC082E080936E0080916B007D
:1003500090916C0091958195910990936C00809398
:100360006B000DC080916B0090916C0018161906FF
:100370001CF410926E0003C081E080936E008091A7
:100380006E0090916F008917A1F0913041F4809335
:100390006F00811102C038DF3DC049DF3BC083B52B
:1003A00090E04F977CF513BC81E080936F0056DF9F
:1003B00031C020916B0030916C0083B590E08217C2
:1003C00093076CF420916B0030916C0083B590E042
:1003D0004E9682179307CCF483B5825E1AC02091A3
:1003E0006B0030916C0083B590E02817390794F4C6
:1003F00020916B0030916C0083B590E04E972817E8
:1004000039071CF483B58E5104C080916B00909124
:100410006C0083BDFF91EF91BF91AF919F918F9140
:100420007F916F915F914F913F912F910F900FBEF0
:100430000F901F901895CF93DF93D82F8AE083BD3C
:10044000C0E0CD17D1F0C0FF02C0DEDE01C0EFDE9C
:100450002FEF83EC99E0215080409040E1F700C0FD
:100460000000CF5FFBDE2FEF85EA9EE02150804049
:100470009040E1F700C00000E4CFF0DE13BCDF9154
:10048000CF910895F894A59A8D9A8C9AA49A81B3E5
:1004900011BA85B7816085BF8BB780648BBF83B786
:1004A000836083BF1FBC82E08EBD13BC85BD18BEB8
:1004B00085EC89BF80E090E0A6D09093680080939F
:1004C0006700019631F480ED97E090936800809387
:1004D000670082E090E097D090936600809365007B
:1004E000019631F480EA9FE0909366008093650066
:1004F00084E090E088D0909364008093630001963C
:1005000021F4109264001092630086E090E07BD0AA
:100510009093620080936100019631F48FEF90E038
:10052000909362008093610081E080936E008093DD
:100530006F0010926D0092DE8FEF91EE24E08150FB
:1005400090402040E1F700C0000086B1876086B986
:1005500087B1806687B9789483E06DDFFFCF052E81
:1005600097FB16F400940FD057FD05D01ED007FC62
:1005700002D046F408C050954095309521953F4FE4
:100580004F4F5F4F089590958095709561957F4F7F
:100590008F4F9F4F08952BD0A59F900DB49F900D26
:1005A000A49F800D911D11240895A1E21A2EAA1B6B
:1005B000BB1BFD010DC0AA1FBB1FEE1FFF1FA21713
:1005C000B307E407F50720F0A21BB30BE40BF50B10
:1005D000661F771F881F991F1A9469F76095709599
:1005E000809590959B01AC01BD01CF010895A29F1C
:1005F000B001B39FC001A39F01D0B29F700D811DB8
:100600001124911D0895A8E1B0E042E050E002C03D
:10061000DC01CB01FC01E199FECF06C0FFBBEEBBC4
:10062000E09A31960DB20D9241505040B8F70895BE
:04063000F894FFCF6C
:00000001FF
